:020000040800F2
:1000000020EE012055350008293300082B33000865
:100010002F33000833330008373300080000000096
:100020000000000000000000000000003B3300085A
:100030003D330008000000003F3300084133000852
:100040006F3500086F3500086F3500086F35000800
:100050006F3500086F3500086F3500086F350008F0
:100060006F3500086F3500086F3500086F350008E0
:100070006F3500086F350008AD0500088F050008D2
:100080006F3500086F3500086F3500086F350008C0
:100090006F3500086F3500086F3500086F350008B0
:1000A0006F3500086F3500086F3500086F350008A0
:1000B0006F3500086F3500086F3500086F35000890
:1000C0006F3500086F3500086F3500086F35000880
:1000D0006F350008BD2600086F3500086F35000831
:1000E0006F3500086F3500086F3500086F35000860
:1000F0006F3500086F3500086F3500086F35000850
:100100006F350008292400086F3500086F35000896
:100110006F3500086F3500086F3500086F3500082F
:100120006F3500086F3500086F3500086F3500081F
:100130006F3500086F3500086F3500086F3500080F
:100140006F3500086F3500086F3500086F350008FF
:100150006F3500086F3500086F3500086F350008EF
:100160006F3500086F3500086F3500086F350008DF
:100170006F3500086F3500086F3500086F350008CF
:100180006F3500086F350008DFF80CD008F08EFAE4
:1001900000480047AD01000820EE012030BF72B6D4
:1001A000704762B6704780F308887047A82000F057
:1001B00021F84FF4E13002F02BFA02F0EDFA282199
:1001C000084602F022FC3C2002F036FC03F082FAE2
:1001D00006490122086806A104F02EFE4FF47A7049
:1001E00000F06AF801E003F079F8FCE7BC040020B5
:1001F000303A000010B504466FF0040006F0F6FC3B
:10020000E11704EB5171C1F3C701394A117010466F
:10021000007800EB4001C1EBC0104FF6FF7101EA1E
:10022000C0003449088010BD0146314A12784A4363
:100230004FF0E0235A6100229A611A46126942F097
:1002400001021A6100BF4FF0E022106900F00102C4
:100250001AB100F48032002AF5D04FF0E022126982
:1002600022F001024FF0E0231A6100229A617047E8
:100270000146204A12884A434FF0E0235A61002287
:100280009A611A46126942F001021A6100BF4FF0EA
:10029000E022106900F001021AB100F48032002A55
:1002A000F5D04FF0E022126922F001024FF0E02376
:1002B0001A6100229A61704770B504464FF40770C6
:1002C00094FBF0F0C6B24FF4077094FBF0F100FB22
:1002D000114085B205E04FF40770FFF7C9FF701EAB
:1002E000C6B2002EF7D115B12846FFF7C1FF70BD89
:1002F00000000020020000202DE9FF4104460F46C7
:1003000015461E460121880307F0CFF90121880315
:1003100007F020FA00214FF4804007F01BFAADF8F7
:100320000070ADF80240ADF804600020ADF80600A2
:1003300002200290ADF80C506946B24807F018FC54
:1003400001220221AF4807F08EFD0121AD4807F0E0
:10035000F7FCBDE8FF812DE9FF4104460F46154635
:100360001E4687F48070ADF80000ADF80240ADF88D
:1003700004600020ADF8060002200290ADF80C5099
:100380006946A14807F026FD012211469E4807F064
:100390006AFD01219C4807F0D3FCBDE8FF8170B5E0
:1003A0000546002400260A20B5FBF0F500BF09E051
:1003B00004EB8400954931F81000A84200D103E015
:1003C000601CC4B20B2CF3D300BF002006F0F5FF75
:1003D0000B2C01D1012070BD04EB84028B4B03EB8D
:1003E0004202918804EB840203EB4202508806F03B
:1003F000DDFF8748006840F080608549086000BFE5
:100400008348006800F000600028F9D004EB840005
:100410007E4901EB4000C68804EB840001EB4000FC
:10042000C08846EA002646F40076764920310E80E0
:100430000020D0E770B590B004460E461546012165
:10044000480507F0E9F8734806F0EEFB00BF714875
:1004500006F013FD0028FAD16F496E4806F094FDAE
:100460000020009067480C300190029440200390D7
:100470000495002005904FF480600690400007909E
:10048000800008904011099040020A9000200B90D3
:100490000C900D900E9069465E4806F067FC0022B5
:1004A00031465C4806F0C3FC01215A4806F0CBFCFB
:1004B00001221021574806F020FD0F208DF83C0046
:1004C00000208DF83D008DF83E0001208DF83F00A2
:1004D0000FA806F03EFB10B070BD70B590B004469A
:1004E0000E4615460121480507F096F84948183888
:1004F00006F09AFB00BF4748183806F0BEFC0028FB
:10050000F9D146494348183806F03EFD4FF0C06027
:1005100000903D480C300190029400200390049517
:1005200005904FF48060069040000790800008908E
:100530004011099000020A9000200B900C900D9041
:100540000E9069463348183806F010FC00223146F8
:100550003048183806F06BFC01212E48183806F098
:1005600072FC012210212B48183806F0C6FC0E2020
:100570008DF83C0000208DF83D0001208DF83E00F4
:100580008DF83F000FA806F0E4FA10B070BD10B56A
:100590002349204806F0CEFC012806D120491D48F9
:1005A00006F0F2FC1F480068804710BD10B51E49D8
:1005B0001848183806F0BEFC012807D11A4915481A
:1005C000183806F0E1FC19480068804710BD10B5E6
:1005D0000121104806F004FC10BD10B500210D48A3
:1005E00006F0FEFB10BD10B501210A48183806F0D0
:1005F000F7FB10BD10B500210648183806F0F0FBD7
:1006000010BD00000038004000340040AA8B0008F4
:1006100000380240706002403DF000A000F0409FB2
:100620002080002004000020008000180800002026
:100630001CB50121022006F0EFFFC0200090012030
:100640008DF8040000208DF8060003208DF80500C9
:1006500001208DF807006946884806F03FFD01201B
:10066000874908608749C1F89C021CBD10B58348C2
:10067000006820F44040814908600846006840F462
:100680008040086001207E49091D08607D49C1F84D
:1006900098020420FFF7C8FD00207949091D086071
:1006A0000420FFF7C1FD00207649C1F8980210BD73
:1006B00010B57248006820F4404070490860084650
:1006C000006840F48040086000206D4908606D4972
:1006D000C1F89C020420FFF7A7FD012068490860CB
:1006E0006849C1F89C020420FFF79EFD10BD10B5BB
:1006F00000246248006820F44040604908600846D1
:100700000068086001205E49091D0860FFF78CFD44
:1007100001205C49C1F89802FFF786FD07E0601CE4
:10072000C4B2FA2C03DDFFF7C3FF012010BD54480B
:100730007C3800680028F2D15149086000BFF5E715
:1007400010B500204E4908604C48006820F4404035
:100750004A4908600846006840F48040086000206C
:100760004849C1F89C020220FFF75EFD0120444980
:1007700008600220FFF758FD00204249C1F89802A6
:1007800010BD10B500203E4908603C48006820F4C8
:1007900040403A4908600846006840F480400860DC
:1007A00001203849C1F89C020220FFF73DFD0120DD
:1007B000334908600220FFF737FD00203149C1F8B6
:1007C000980210BD70B504462C48006820F44040E3
:1007D0002A4908600846006840F48040086000200C
:1007E00027490860002517E0E0092549091D086030
:1007F0006006040E0220FFF717FD01202149C1F811
:1008000098020220FFF710FD00201D490860022019
:10081000FFF70AFD681CC5B2082DE5DB70BD70B599
:10082000054600241548006820F44040134908603C
:10083000084600680860002616E00020104908609D
:100840000220FFF7F1FC01200E49C1F89802600672
:10085000040E0B487C38006808B1601CC4B201204B
:10086000FFF7E2FC701CC6B2082EE6DB15B9FFF7F5
:1008700088FF01E0FFF764FF204670BD00040240DE
:1008800098824042008040420020FE490860091DD5
:100890000860091D0860091D0860FA4924310860D4
:1008A000091D0860091D0860F748F64938310860DD
:1008B0000020091D0860704701460020012900D072
:1008C00011B9F24B197000E0262070470146ED4A3D
:1008D000121D106820F0FF0008431060704770B5CB
:1008E000044606E0E7483430056805F0450000B1ED
:1008F00000E0F7E700BF042007F0AAF820B10420C9
:1009000007F0B1F8032070BD012007F0A1F820B175
:10091000012007F0A8F80120F5E7DA481030006858
:10092000A04201D01020EEE740F2FF5007F09BF804
:10093000D4481430006808210840C0B2E3E72DE92C
:10094000FC4107460D46002600240020009001903F
:100950000820CF49086010204860402088600020AF
:10096000C8604FF480600861084606F0DEFF102082
:10097000FFF7B5FF044614B12046BDE8FC81C54829
:1009800000880004C2490860372048604020886021
:100990000020C8604FF480600861084606F0C5FF7B
:1009A0003720FFF79CFF04460CB12046E5E74FF0E7
:1009B000FF30B94908600820486030208860022074
:1009C000C8600020086101204861084606F0D9FF90
:1009D0000020AF4908603320486040208860002034
:1009E000C8604FF480600861084606F09EFF33201F
:1009F000FFF775FF04460CB12046BEE70DE04FF44B
:100A0000001007F025F840B19E48803000684DF88E
:100A10002600761C022E00D307E09A483430006886
:100A200040F22A6108400028E9D000BF082007F002
:100A30000FF820B1082007F016F804209DE70220E7
:100A400007F006F820B1022007F00DF8022094E725
:100A5000202006F0FDFF20B1202007F004F806203A
:100A60008BE74FF4007006F0F3FF28B14FF40070ED
:100A700006F0F9FF072080E740F2FF5006F0F3FF91
:100A800000980006009901F47F4140EA0120009996
:100A900001F47F0140EA1120009940EA116068608A
:100AA00001980006019901F47F4140EA0120019973
:100AB00001F47F0140EA1120019940EA11602860A9
:100AC00020465AE77CB5054600240020009001909E
:100AD00000260DB1022600E000266A4814300068A6
:100AE00000F0007008B10E207CBD6A49098888B208
:100AF0006946FFF724FF04460CB12046F4E701984D
:100B000000F4802060B363480088000460490860F6
:100B100037204860402088600020C8604FF4806023
:100B20000861084606F001FF3720FFF7D8FE0446AB
:100B30000CB12046D8E75648066006205449486064
:100B4000402088600020C8604FF48060086108463B
:100B500006F0EBFE0620FFF7C2FE04462046C3E780
:100B60002520C1E770B5044600254C4800780328CD
:100B700002D12725284670BD4848007838B147483B
:100B80000078012803D045480078022819D1B4F52F
:100B9000805F02D127252846EDE7E0B2FFF792FFFC
:100BA000054675B93748001D006820F4C050354926
:100BB000091D086008460068204308600846006870
:100BC00008602846D7E710B504463148046007207E
:100BD0002F494860402088600020C8604FF4806042
:100BE0000861084606F0A1FE0720FFF778FE10BD59
:100BF000F0B5014600200022284B1B7881F85630C2
:100C0000244B1B88A1F85430254B1B681A0E9309FE
:100C10000B70C2F383034B7002F003038B70204B05
:100C20001B68C3F30742CA701D4B1B88C3F307221E
:100C30000A711B4B1A784A715B681A0E1301CB803C
:100C4000174B5B68C3F30742CB8843EA1213CB8090
:100C500002F00F030B72124B9B88C3F30722D309D8
:100C60004B72C2F380138B72C2F34013CB72C2F388
:100C700000130B7300234B73084B1B78C3B1074B56
:100C80001B780FE0002C0140FF07C000140000207B
:100C900018010020100000202C0100200C00002072
:100CA00044010020012B03D0FE4B1B78032B4FD1B6
:100CB00093071B0D0B61FC4B1A790B6943EA820306
:100CC0000B61F94B9B681A0E0B6943EA92130B6197
:100CD000C2F3C2030B7502F007034B75F24B9B681E
:100CE000C3F3074253098B75C2F38203CB75930795
:100CF0005B0F0B76EC4B1B89C3F307220B7E43EA99
:100D0000D2130B760B695B1C0024C1E912340B7EF5
:100D10009B1C012404FA03F3DC17D1E91256A5FB4E
:100D2000037C06FB03C305FB0433C1E912730C7A91
:100D30000123A3400B650024D1E912650B6DA6FBCE
:100D4000037C05FB03C306FB0433C1E912732EE0E9
:100D5000D44B1B78022B2AD1D34B1A7993069B0ACA
:100D60000B61D14B9B681A0E0B6943EA02230B619E
:100D7000CD4B9B68C3F307420B6913430B61CA4B0E
:100D80001B89C3F307220B695B1C4FF40074A3FBA0
:100D900004464FF480630025A4FB037C06FB03C3D9
:100DA00004FB0533C1E912734FF400730B65C2F302
:100DB000801301F8193F93065B0E4B70BA4B1A7AF9
:100DC0004B7843EAD2134B7002F07F038B70B64B23
:100DD000DB681A0ED309CB70C2F341130B71C2F357
:100DE00082034B7193071B0F8B71AF4BDB68C3F30F
:100DF00007428B7943EA92138B71C2F34013CB7194
:100E000000230B7202F001034B72A74B9B89C3F3C3
:100E10000722D3098B72C2F38013CB72C2F3401343
:100E20000B73C2F300134B73C2F381038B7302F095
:100E30000303CB739C4B1A7B53080B7401234B7435
:100E40009A4B1B681A0ECA741939984B1B68C3F366
:100E500007421402CC85954B1B88C3F30722CB8D28
:100E60001343CB85914B1A7814060C635B681A0EFA
:100E70000B6B43EA02440C638C4B5B68C3F3074281
:100E80000B6B43EA02240C63884B9B88C3F3072255
:100E90000B6B13430B63854B1A7934235A54834BE2
:100EA0009B681A0E35235A54804B9B68C3F3074244
:100EB00014068C637D4B1B89C3F307228B6B43EABB
:100EC00002448C63794B1A7A8B6B43EA02248C635D
:100ED000764BDB681A0E8B6B13438B63734BDB68AB
:100EE000C3F307423C235B5C43EA12143C235C548B
:100EF00013071C0DCC876D4B9B89C3F30722CB8F47
:100F00001343CB87694B1A7B540840235C5401245C
:100F100041235C54F0BD70B500264FF4803505E0E8
:100F20006348046804F0450000B103E02800A5F11F
:100F30000105F5D100BF15B104F0040028B1032666
:100F4000042006F090FD304670BD012006F080FDC3
:100F500018B10126012006F086FD40F2FF5006F090
:100F600082FD3046F0E72DE9F04105460E464FF090
:100F7000000805E04E48076807F0450000B100E0B2
:100F8000F8E700BF042006F063FD28B1042006F056
:100F90006AFD0320BDE8F081012006F059FD20B173
:100FA000012006F060FD0120F4E741482438006884
:100FB000A84201D01020EDE740F2FF5006F053FDAB
:100FC0003B482038046804F4604018B9200C308095
:100FD0004046DFE704F4005008B11320DAE704F4D8
:100FE000804008B11020D5E704F4004008B10F207C
:100FF000D0E74046CEE738B500240120009006F047
:101000008EFC10B92524204638BD264800780428D7
:1010100025D000202749086002204860C020886051
:101020000020C8604FF480600861084606F07DFC2F
:10103000FFF771FF04460CB12046E5E71C48203855
:1010400000681A4908601A481C3800684860184847
:10105000183800688860164814380068C86011485D
:10106000007858B10F480078012807D00D48007863
:10107000062803D00B480078022821D100200D4912
:10108000086003204860402088600020C8604FF45A
:1010900080600861084606F048FC69460320FFF7B7
:1010A00062FF09E00C0000204401002054010020F0
:1010B000342C01401801002004460CB12046A3E75F
:1010C000FE480078032816D1BDF800000004FC4952
:1010D000086003204860402088600020C8604FF40A
:1010E00080600861084606F020FCFFF714FF044604
:1010F0000CB1204688E7F148007804282AD0BDF8D2
:101100000000F0490860BDF800000004EC490860E8
:1011100009204860C02088600020C8604FF48060CB
:101120000861084606F001FCFFF7F5FE04460CB125
:10113000204669E7E4480068E4490860E248001D89
:1011400000684860E048083000688860DE480C307D
:101150000068C860002057E710B506E0DA48203084
:10116000046804F0450000B100E0F7E700BF042088
:1011700006F06EFC20B1042006F075FC032010BDC3
:1011800040F2FF5006F06FFC0020F8E770B5002633
:101190004FF4803506E0CC482030046804F0450068
:1011A00000B103E02800A5F10105F4D100BF15B19D
:1011B00004F0040028B10326042006F054FC304655
:1011C00070BD04F0400018B10026402006F04BFC32
:1011D0003046F5E770B500254FF4803404E08020F8
:1011E00006F036FC00B103E02000A4F10104F6D1C2
:1011F00000BF0CB9032070BD40F2FF5006F033FC75
:101200002846F8E72DE9F0470027002400260025AE
:10121000A046A1467620AE490875002008604860C7
:101220008860C8600861084606F055FB032006F098
:1012300072FBA5481038006840F48070A24910394C
:10124000086000BF12E000209D4908604860886087
:10125000C8604FF480600861084606F066FBFFF73F
:10126000B9FF044604B903E0781CC7B24A2FEADB91
:1012700000BF14B12046BDE8F0874FF4D570904907
:10128000086008204860402088600020C8604FF453
:1012900080600861084606F048FBFFF777FF0446C8
:1012A00024B90120854908704FF080490020844905
:1012B000086037204860402088600020C8604FF4F4
:1012C00080600861084606F030FB3720FFF707FB17
:1012D0000446002C4BD134E00020794908603720C7
:1012E0004860402088600020C8604FF4806008613A
:1012F000084606F01AFB3720FFF7F1FA04460CB156
:101300002046B8E7734849EA00006D490860292083
:101310004860402088600020C8604FF48060086109
:10132000084606F002FBFFF717FF04460CB1204603
:10133000A1E765480668012080EAD67080F00108C0
:101340006D1CB8F1000F03D14FF6FF708542C3D377
:101350004FF6FF70854202D31B2420468BE706F030
:101360008040060032D00220544908702EE01CE074
:101370005948534908600120486040208860002097
:10138000C8604FF480600861084606F0CEFAFFF7A7
:10139000E3FE04460CB120466DE74B480668012089
:1013A00080EAD67080F001086D1CB8F1000F03D1FF
:1013B0004FF6FF708542DBD34FF6FF70854202D3B4
:1013C0001B24204657E703203C490870204652E77B
:1013D0003EB5002400250121404806F01DF90121F9
:1013E000C80206F073F90121C80206F0C4F94FF4EF
:1013F000F850019002208DF808008DF809000020B7
:101400008DF80A0001208DF80B0001A9344805F081
:1014100065FE0420019001A9324805F05FFE0C2210
:1014200008212F4805F0E5FE0C2209212C4805F083
:10143000E0FE0C220A212A4805F0DBFE0C220B21DB
:10144000274805F0D6FE0C221146254805F0D1FEAE
:101450000C220221234805F0CCFE00214FF400604D
:1014600006F089F9FFF710FA31208DF8000000200E
:101470008DF801008DF8020001208DF80300684608
:1014800005F067FBFFF7BEFE044614B9FFF7B3FD96
:1014900004461CB91448FFF7ABFB044634B91249A3
:1014A000B1F854100804FFF78EFB044624B94FF43A
:1014B0000060FFF757FB0446E4B117E00C00002082
:1014C0001801002010000020142C014044010020CD
:1014D00000010020000010800080FF800C00400010
:1014E00000080240000C024068010020FE4800781D
:1014F000032812D1FD4890F8560020B1FB4890F81F
:101500005600012801D1022500E000252846FFF7FA
:10151000DDF90020FFF7D0F9044620463EBD10B5A6
:10152000002006F0F8F9002010BD70B590B0044618
:101530000E46154600BFEE4805F09FFC0028FAD184
:10154000EB4805F071FB4FF000600190E948029014
:10155000039404950020059006904FF48060079056
:10156000800008908000099000200A904FF44030DD
:101570000B9004200C9003200D904FF400000E906F
:1015800080100F9001A9DA4805F0F0FB2021D8481F
:1015900005F03CFC0121D64805F022FC10B070BDDE
:1015A0000146002002E04910421CD0B20129FAD1C4
:1015B00070472DE9F84F8146174698460A9C4FF030
:1015C000000AD3464D464FF0FF36B9F1000F02D165
:1015D0002620BDE8F88F0020C64954390860C2486B
:1015E0000078022805D10402780A40EAC8574FEA79
:1015F00068280020C04988604860401E08600120BB
:1016000048610020C8600861084606F0BAF9B94888
:101610006C38006800F0007008B10E20D9E7002C8B
:1016200021DDB4F5006F1EDC601E2040D8B92046D5
:10163000FFF7B6FF0090B14804601020AF49486042
:10164000402088600020C8604FF480600861084630
:1016500006F06BF91020FFF742F98246BAF1000F4D
:1016600003D05046B5E72620B3E700980001A24911
:101670008860084644604FF0FF30086001204861F0
:101680000220C86000200861084606F07AF99B48ED
:101690000760112099494860402088600020C86098
:1016A0004FF480600861084606F03FF91120FFF70B
:1016B00016F98246BAF1000F01D0504689E79048EA
:1016C000007800285AD1FEF76AFD17E04FF4004079
:1016D00006F0BEF970B14FF0000B05E085480068D8
:1016E00045F82B000BF1010BBBF1080FF6D32035A9
:1016F000844E03E00EB904206BE7761E7D484C381B
:10170000006840F22A6108400028DFD0082006F077
:101710009FF920B1082006F0A6F9042059E702201D
:1017200006F096F920B1022006F09DF9022050E75C
:10173000202006F08DF920B1202006F094F9062033
:1017400047E74FF4007006F083F928B14FF40070BA
:1017500006F089F907203CE703E066480068286046
:101760002D1D4FF4001006F073F90028F5D1FEF797
:1017700018FD40F2FF5006F076F939E06048007835
:10178000012835D10020604908706049087060491F
:10179000087058484438006840F22A3108435549D7
:1017A0004439086053485438006840F008005149F3
:1017B00054390860002221464846FFF7B6FE00E093
:1017C000761E4B485838006800F0006038B9504821
:1017D000007820B94C48007808B9002EF0D10EB935
:1017E0000420F6E64848007810B1474890F800A079
:1017F0005046EEE62DE9FF5F17469846DDE90E46B6
:101800004FF00009CA464FF0FF3542490098086082
:10181000002038495439086033480078022805D13F
:101820000402780A40EAC8574FEA68280020324983
:1018300088604860401E0860012048610020C86040
:101840000861084606F09DF82A486C38006800F0E8
:10185000007018B10E2004B0BDE8F09F002C21DD0F
:10186000B4F5006F1EDC601E2040D8B92046FFF79B
:1018700097FE83462148046010202049486040209C
:1018800088600020C8604FF480600861084606F058
:101890004CF81020FFF723F88146B9F1000F03D070
:1018A0004846D8E72620D6E7012E6ED906FB04F07D
:1018B000B0F1007F01D32620CDE74FEA0B100E498F
:1018C000886006FB04F048604FF0FF30086001209C
:1018D00048610220C86000200861084606F051F8FF
:1018E00006480760122017E00C0000206801002065
:1018F00058640240802C01402C0100201801002077
:1019000014000020FFFF7F001600002015000020BB
:101910001700002018000020F94948604020886026
:101920000020C8604FF480600861084605F0FDFFA4
:101930001220FEF7D4FF8146B9F1000F01D04846CE
:1019400089E7F048007800287ED1FEF728FC1EE0E9
:101950004FF4004006F07CF8A0B14FF0000A07E019
:10196000E9480068E949096841F82A000AF1010AD2
:10197000BAF1080FF4D3E54800682030E349086065
:10198000E34D04E015B9042065E7AEE06D1EDE48C6
:101990004C38006840F22A3108400028D8D008208E
:1019A00006F056F820B1082006F05DF8042052E752
:1019B000022006F04DF820B1022006F054F8022073
:1019C00049E7202006F044F820B1202006F04BF82B
:1019D000062040E74FF4007006F03AF828B14FF4C3
:1019E000007006F040F8072035E709E0C6480068B7
:1019F000C64909680860C5480068001DC3490860F9
:101A00004FF4001006F024F80028EFD14FF4807056
:101A100006F01EF820B3BF48007838B1BD48007802
:101A2000012803D0BB480078022819D10020B4490E
:101A300008600C204860402088600020C8604FF497
:101A400080600861084600E011E005F06EFF0C20A0
:101A5000FEF745FF8146B9F1000F01D04846FAE68E
:101A6000FEF79FFB40F2FF5005F0FDFF3DE0A5486B
:101A70000078012839D10020A74908700120A74922
:101A800008700020A64908709F484438006840F25A
:101A90002A3108439C49443908609B4854380068FF
:101AA00040F0080098495439086006FB04F1002210
:101AB0000098FFF73AFD00E06D1E9A48006800F0BC
:101AC000006008B9002DF7D10DB90420C3E600BFAE
:101AD0009348007818B9904800780028F8D08E48CC
:101AE000007810B18C4890F800904846B3E61CB5D9
:101AF00004460020019000908B4800880004804933
:101B000008600D204860402088600020C8604FF4C5
:101B100080600861084605F008FF7B484C38006883
:101B2000009003E078484C3800680090009800F07E
:101B300045000028F6D0012005F08AFF20B10120E1
:101B400005F091FF01201CBD042005F081FF20B1AC
:101B5000042005F088FF0320F5E76B487038006823
:101B60000D2801D01020EEE740F2FF5005F07BFF7A
:101B700065486C38006801900198C0F343202070DC
:101B80000020E0E72DE9FF5F86B017469846149DD8
:101B90000026002005900490002481460390824690
:101BA00002900195DDF818B0DDF818B0BBF1000F18
:101BB00003D126200AB0BDE8F09F002052495439D5
:101BC00008605A4988604860401E086001204861EA
:101BD0000020C8600861084605F0D3FE4A486C380A
:101BE000006800F0007008B10E20E3E74948007873
:101BF000022805D10502780A40EAC8574FEA68284A
:101C0000002D1FDDB5F5006F1CDC681E2840C8B92B
:101C10002846FFF7C5FC0590394805601020384973
:101C20004860402088600020C8604FF480600861F0
:101C3000084605F07AFE1020FEF751FE06461EB15A
:101C40003046B7E72620B5E73748008800042C491E
:101C500008600D204860402088600020C8604FF474
:101C600080600861084605F060FE0D20FEF737FE33
:101C700006460EB130469DE723486C380068039055
:101C80004FF0FF341CE0641E2748008800041C4904
:101C900008600D204860402088600020C8604FF434
:101CA00080600861084605F040FE0D20FEF717FE33
:101CB00006460EB130467DE713486C380068039045
:101CC000039800F4807008B9002CDCD10CB92920ED
:101CD00070E70B4807601820094948604020886079
:101CE0000020C8604FF480600861084605F01DFEC2
:101CF0001820FEF7F4FD0646D6B130465AE700003C
:101D00001801002014000020802C01401800002041
:101D1000FFFF7F000C0000201600002015000020AF
:101D20001700002000640240100000202C01002059
:101D30000020F849087005980001F74988600846B6
:101D400045604FF0FF300860012048610020C86006
:101D50000861084605F015FE4FF0FF34EF480078A3
:101D600000287CD1FEF71BFA43E04FF4804005F0D9
:101D70006FFEC8B30198A0EB0900202821D201987A
:101D8000A0EB090000F0030020B90198A0EB0900C6
:101D9000800804E00198A0EB09008008401C029034
:101DA0004FF0000A09E0DE49DBF8000008600AF1A4
:101DB000010A0BF1040B09F1040902988245F2D3E0
:101DC0000FE04FF0000A05E05BF82A00D4490860F4
:101DD0000AF1010ABAF1080FF6D30BF1200B09F151
:101DE00020096FF0404404E0FFE70CB90420E1E66D
:101DF000641ECB484C38006840F21A610840002845
:101E0000B3D0082005F024FE20B1082005F02BFEF9
:101E10000420CFE6022005F01BFE20B1022005F0D1
:101E200022FE0220C6E6102005F012FE20B110208E
:101E300005F019FE0520BDE64FF4007005F008FE20
:101E400030B14FF4007005F00EFE0720B2E606E058
:101E5000FEF7A7F940F2FF5005F005FE43E0AF485A
:101E6000007801283FD10020AE490870A9490870C8
:101E7000AD490870AA484438006840F21A31084356
:101E8000A74944390860402229460698FFF74DFBD0
:101E9000A3485438006840F00800A149543908604C
:101EA00000E0641EA148006800F0006008B9002C42
:101EB000F7D11CB9FFF78CFA04207BE64FF0FF3412
:101EC00000E0641E9848007820B99648007808B968
:101ED000002CF6D10CB904206CE69248007810B1C1
:101EE0009048007866E640F2FF5005F0BCFD04A87B
:101EF000FFF7FDFD064603E004A8FFF7F8FD0646E0
:101F00003EB99DF810000728F6D09DF8100006286D
:101F1000F2D030464EE62DE9FF5F84B0DDE912478E
:101F20000026002003900290002580468146019003
:101F300007FB04FBDDF810A0DDF810A0BAF1000FDC
:101F400003D1262008B0BDE8F09F00207449543921
:101F50000860714988604860401E0860012048613F
:101F60000020C8600861084605F00BFD6C486C381D
:101F7000006800F0007008B10E20E3E76C480078BC
:101F8000022808D10402DDE90601400A40EAC150F6
:101F90004912CDE90601002C1FDDB4F5006F1CDCF1
:101FA000601E2040C8B92046FFF7FAFA0390614846
:101FB000046010205F494860402088600020C860AD
:101FC0004FF480600861084605F0AFFC1020FEF772
:101FD00086FC06461EB13046B4E72620B2E7012F44
:101FE0006FD907FB04F0B0F1007F01D32620A9E7E9
:101FF0004F48007838B14E480078012803D04C484B
:10200000007802282DD14C48008800044949086016
:1020100037204860402088600020C8604FF480600E
:102020000861084605F081FC3720FEF758FC06469B
:102030000EB1304686E73F48076017203D494860AB
:10204000402088600020C8604FF480600861084626
:1020500005F06BFC1720FEF742FC06460EB1304639
:1020600070E734490698086019204860402088606D
:102070000020C8604FF480600861084605F055FCF8
:102080001920FEF72CFC06460EB130465AE703989D
:1020900000012149886007FB04F048604FF0FF30E1
:1020A0000860012048610020C8600861084605F00A
:1020B00068FC1A480078002872D1451EFEF76FF8B8
:1020C00054E0F8E04FF4804005F0C2FCB0B3ABEB55
:1020D0000800202833D2ABEB080000F0030018B949
:1020E000ABEB0800800803E0ABEB08008008401C65
:1020F00001904FF0000909E00949DAF80000086092
:1021000009F101090AF1040A08F10408019881455E
:10211000F2D324E0150000202C0100201400002040
:10212000802C0140160000201700002000640240AF
:102130000C000020180100201000002012E04FF0D9
:10214000000905E05AF82900F849086009F1010979
:10215000B9F1080FF6D30AF1200A08F120086FF050
:10216000404503E00DB90420ECE66D1EEF484C3805
:10217000006840F21A3108400028A3D0082005F07A
:1021800067FC20B1082005F06EFC0420DAE602208E
:1021900005F05EFC28B1022005F065FC0220D1E6C6
:1021A00040E0102005F054FC20B1102005F05BFC4D
:1021B0000520C7E64FF4007005F04AFC28B14FF443
:1021C000007005F050FC0720BCE64FF4807005F06D
:1021D0003FFC00B3D648007838B1D54800780128D4
:1021E00003D0D3480078022815D10020D1490860D7
:1021F0000C204860402088600020C8604FF4806058
:102200000861084605F091FB0C20FEF768FB0646C6
:102210000EB1304696E6FDF7C4FF40F2FF5005F0E0
:1022200022FC48E0C4480078012844D10020C3497A
:1022300008700120C24908700020C2490870BB48DC
:102240004438006840F21A310843B84944390860FC
:1022500007FB04F140220498FFF767F9B3485438AC
:10226000006840F00800B149543908604FF0FF356C
:1022700000E06D1EB448006800F0006008B9002D51
:10228000F7D11DB9FFF7A4F804205BE64FF0FF3546
:1022900000E06D1EAB48007820B9A848007808B966
:1022A000002DF6D10DB904204CE6A448007810B1F9
:1022B000A248007846E640F2FF5005F0D4FB02A8A1
:1022C000FFF715FC064603E002A8FFF710FC0646E0
:1022D0003EB99DF808000728F6D09DF808000628AA
:1022E000F2D030462EE610B54FF4807005F0B0FB0A
:1022F00088B393480078012814D100208D490860E4
:102300000C204860402088600020C8604FF4806046
:102310000861084605F009FB0C20FEF7E0FA874942
:10232000087002E00020854908708048483800683D
:1023300040F480707D4948390860081D00684CF2FF
:102340003A31884379494439086001207D49087051
:102350007A48007810BDFFE7022005F079FB78B1DC
:10236000022005F080FB7148443800684CF23A3195
:1023700088436E4944390860022070490870E9E7D3
:10238000082005F065FB78B1082005F06CFB674874
:10239000443800684CF23A31884364494439086053
:1023A000042066490870D5E7202005F051FB78B17C
:1023B000202005F058FB5D48443800684CF23A3163
:1023C00088435A494439086006205C490870C1E7CF
:1023D000102005F03DFB78B1102005F044FB534878
:1023E000443800684CF23A31884350494439086017
:1023F000052052490870ADE74FF4007005F028FB46
:1024000080B14FF4007005F02EFB48484438006856
:102410004CF23A318843454944390860072047491E
:10242000087097E7002095E710B5FFF75CFF10BD37
:1024300070B50446002514B92625284670BD4348CA
:10244000008800043B4908600D20486040208860F7
:102450000020C8604FF480600861084605F065FA06
:102460000D20FEF73CFA05460DB12846E6E72F4859
:102470006C38006820602846E0E708B5002000902E
:102480006846FFF7D5FF08B1FF2008BD0098C0F3EC
:102490004320FAE72DE9FE4F83460E469146002081
:1024A0000290002534462248007818B1680240EABC
:1024B000D45564020BF00300F0B14FF0000A18E0AD
:1024C0004FF4007000904FEA4A20071945EBE07383
:1024D0003A461F48FFF76DF802904FF400721C490E
:1024E000584606F088F80BF5007B0AF1010000F071
:1024F000FF0ACA45E4DB16E0B9F1010F09D14FF438
:10250000007022462B4600905846FFF752F8029082
:1025100009E04FF4007022462B46CDE900095846E9
:10252000FFF768F902900298BDE8FE8F802C014009
:102530000C000020180100201400002016000020CC
:102540001500002017000020006402401000002049
:10255000C00100202DE9FE4F064689469246002024
:10256000029000254C462148007818B1680240EAE4
:10257000D455640206F00300F0B14FF0000B18E0F0
:102580004FF4007231461A4806F035F84FF40070E7
:1025900000904FEA4B20071945EBE0733A46144888
:1025A000FFF7F0FA029006F500760BF1010000F05B
:1025B000FF0BD345E4DB16E0BAF1010F09D14FF46C
:1025C000007022462B4600903046FFF7DBFA02905F
:1025D00009E04FF4007022462B46CDE9000A304650
:1025E000FFF799FC02900298BDE8FE8F0C000020D6
:1025F000C0010020014600BF704700BF4E4A12884C
:1026000002F04002002AF9D0C2B24B4B9A807047C8
:1026100010B588B004460121084604F0FDFF0121F1
:10262000102005F053F807220921444804F0E1FD89
:1026300007220A21414804F0DCFD4FF4C0600690F7
:1026400002208DF81C008DF81D0000208DF81E0062
:1026500001208DF81F0006A9384804F03FFD0294C0
:102660000020ADF80C00ADF80E00ADF81000ADF88C
:1026700014000C20ADF8120002A92F4805F0B5FC9B
:1026800001212D4805F039FD40212B4805F01DFEA4
:10269000012240F22551284805F0E5FD25208DF85E
:1026A000040003208DF805008DF8060001208DF848
:1026B000070001A804F04DFA08B010BD10B540F2B3
:1026C00025511D4805F00AFE10B31B4805F044FDD6
:1026D000C4B21B48008800F40040C8B918480088FC
:1026E00000F4804060B10A2C03D000201449088017
:1026F00020E01348008840F400401149088019E0A8
:102700000D2C06D10E48008840F480400C4908800A
:1027100010E00B480088C0F30D000A490C5408482B
:102720000088401C0649088008460088C72801DD4B
:102730000020088010BD0000001001400000024091
:1027400020000020C003002070B505460C46FDF7B0
:102750008DFF3420FEF736F8FDF7C9FF08B10120E0
:1027600070BDC4F3002141EA4501C8B2FEF72AF862
:10277000FDF7BDFF08B10220F2E7E0B2FEF722F854
:10278000FDF7B5FF08B10320EAE7FDF791FFF44834
:1027900020F815400020E3E71CB50121062004F0D5
:1027A0003BFF4FF44640009002208DF804000020CB
:1027B0008DF8060003208DF8050001208DF8070034
:1027C0006946E84804F08AFC4020009002208DF819
:1027D000040000208DF8060003208DF8050001207C
:1027E0008DF807006946E04804F078FC05220921CD
:1027F000DC4804F0FEFC05220A21DA4804F0F9FC6A
:1028000005220F21D74804F0F4FC05220621D64802
:1028100004F0EFFC06220E21D24804F0EAFCFDF79A
:1028200007FF00210846FFF78FFF04460CB1012087
:102830001CBD1B210120FFF787FF4FF4D871022038
:10284000FFF782FF6C210320FFF77EFF00210620A7
:10285000FFF77AFF10212B20FFF776FF4FF48071EE
:102860002F20FFF771FF4FF480713020FFF76CFFCE
:1028700002213120FFF768FF08210A20FFF764FFDB
:1028800008210E20FFF760FF0020D1E70146B44881
:1028900030F81100704770B505460E460320FFF76B
:1028A000F5FF044615B144F0030401E024F00304ED
:1028B00021460320FFF748FF0220FFF7E7FF044609
:1028C00016B144F0030401E024F003042146022081
:1028D000FFF73AFF70BD70B5044604F007042F20DF
:1028E000FFF7D4FF054625F0070545EA04012F2030
:1028F000FFF72AFF3020FFF7C9FF054625F007053F
:1029000045EA04013020FFF71FFF70BD70B5044693
:1029100004F007042F20FFF7B9FF054625F07005E6
:1029200045EA04112F20FFF70FFF3020FFF7AEFF1D
:10293000054625F0700545EA04113020FFF704FF35
:1029400070BD2DE9F04105460E4617460220FFF7FF
:102950009DFF044615B144F00C0401E024F00C0482
:1029600021460220FFF7F0FE2C20FFF78FFF0446E0
:1029700015B144F0330401E024F0330421462C2047
:10298000FFF7E2FE1EB10520FFF7C0FF02E00020C6
:10299000FFF7BCFF1FB10720FFF79DFF02E00020FB
:1029A000FFF799FFBDE8F08170B506460D4600249B
:1029B0000EB144F001041DB144F0020444F01404CB
:1029C00021463220FFF7C0FE21463320FFF7BCFE30
:1029D00070BD10B5044604F03F0421462D20FFF7DA
:1029E000B3FE44F480712E20FFF7AEFE10BD70B52B
:1029F00004460D4604F0030405F00305E00040EA38
:102A000045110420FFF7A0FE70BD70B504460D46C9
:102A100004F03F0405F03F050CB944F040040DB943
:102A200045F0400521463420FFF78EFE45F48071C5
:102A30003520FFF789FE70BD10B5044604F03F0451
:102A40000CB944F0400421463620FFF77DFE44F4E3
:102A500080713720FFF778FE10BD10B5044604F0F2
:102A60000F0421462920FFF76FFE10BD70B5054603
:102A70001220FFF70BFF044615B144F4807401E007
:102A800024F4807421461220FFF75EFE70BD70B5FD
:102A900006460C4606F00306182C00DD1824C4F187
:102AA0001800C4B21220FFF7F1FE054605F4807548
:102AB00045EA4615254329461220FFF745FE70BD1D
:102AC00070B505460C46002605F00305182C00DD00
:102AD0001824C4F11800C4B246EA4516264331460C
:102AE0001320FFF731FE70BD70B505460C46002679
:102AF00005F00305182C00DD1824C4F11800C4B239
:102B000046EA4516264331461420FFF71DFE70BDE8
:102B100070B505460C46002605F00305182C00DDAF
:102B20001824C4F11800C4B246EA451626433146BB
:102B30001520FFF709FE70BD70B505460C4600264E
:102B400005F00305182C00DD1824C4F11800C4B2E8
:102B500046EA4516264331461620FFF7F5FD70BDBF
:102B60002200002000040240000802401CB50121A0
:102B7000112004F051FD1C20009000208DF804006D
:102B800003208DF8050001208DF8070069463548BF
:102B900004F0A4FA0120009002208DF80700694695
:102BA000314804F09BFA1CBD10B5044614B1012055
:102BB0002E4908702D480078002837D01021294868
:102BC00004F0EEFA78B10821264804F0E9FA50B191
:102BD0000421244804F0E4FA28B10121224804F039
:102BE000DFFA012822D10A20FDF766FB00201F49E9
:102BF000087010211B4804F0D3FA08B9012010BD59
:102C00000821184804F0CCFA08B90220F7E704219B
:102C1000144804F0C5FA08B90320F0E7012112486E
:102C200004F0BEFA01281BD10420E8E710210D486A
:102C300004F0B6FA012813D108210A4804F0B0FACA
:102C400001280DD10421074804F0AAFA012807D170
:102C50000121054804F0A4FA10B9012003490870C5
:102C60000020CCE700100240000002409600002047
:102C70002DE9FC5F82460C460020019000904FF445
:102C80000A7105F04EFC80464FF40071002005F0FB
:102C900048FC0646B8F1000F79D0002E77D001220B
:102CA0005146404602F0F3F80090009800286CD19D
:102CB00001AB4FF400723146404602F0A8F9B3462A
:102CC0005E46DBF80800FE4988425BD106F10C0540
:102CD000696806F114000F183868FA49884203D071
:102CE0003868F949884205D168681C307968084419
:102CF000E06102E068681430E061E06900EB060919
:102D0000D9F80000F149884239D1288920806889A2
:102D10006080E868C4F816002869C000C4F8120092
:102D2000A88AA080E88A6083D9F80400C4F8060065
:102D3000E0690830E0612188E5A005F0E9FC6188E0
:102D4000E9A005F0E5FCD4F81610EDA005F0E0FCD4
:102D5000D4F81210F0A005F0DBFCA188F3A005F078
:102D6000D7FC618BF7A005F0D3FCD4F80610F9A0CE
:102D700005F0CEFCE169FCA005F0CAFC07E00320E9
:102D8000009004E00220009001E001200090404605
:102D900002F06AFB4146002005F0B3FB31460020FB
:102DA00005F0AFFB0020BDE8FC9F2DE9F843064687
:102DB0000D4690464FF00009B8F1180F2BD1284668
:102DC000E91705EB9171891001EB41011FFA81F9B7
:102DD000EB4A9168D0686B464A4602F018F9E84819
:102DE000876800240EE07A782046611C8CB2325449
:102DF000B8783055A01C84B23A782046611C8CB259
:102E00003254FF1CAC42EEDB009880000321B0FB83
:102E1000F1F0009014E0DA49C8686B462A46314662
:102E200002F0F5F80098A8420AD2009884B203E0B4
:102E300000203055601C84B20098281AA042F7D8B0
:102E40000098BDE8F883CF49096F01F4002199B1DA
:102E50000021CD4A1170CA49097C01F00101F1B984
:102E6000002005E00021C64A12681154411C88B2B6
:102E7000B0F5005FF6DB12E00121C34A1170C049D2
:102E8000097C01F0010151B9002005E00021BC4A94
:102E900052681154411C88B2B0F5005FF6DB012185
:102EA000BA4A117070472DE9F05F81460C4654F81C
:102EB000060FE168C908B0FBF1F06060D9F80800BE
:102EC000D4F81610451A0026D4F800C06068002116
:102ED0002A46A0FB027B01FB05B100FB06116246FE
:102EE0000023384605F05AFBA060A41FBDE8F09F00
:102EF0002DE9F041064600274FF40A71002005F045
:102F000010FB9F49C8604FF40051002005F009FBF9
:102F10009B4908604FF40051002005F002FB9849DE
:102F200048604FF40051002005F0FBFA9449886096
:102F30000846C068002873D0084600680028FAD008
:102F4000084640680028F6D0084680680028F2D07D
:102F50008F493046FFF78CFE0546002D78D18C480E
:102F6000408B10280AD100210220FFF740FD0123E9
:102F7000002259021046FDF7BFF90EE08448408B4D
:102F800018280AD102210846FFF731FD0323002249
:102F90004FF400711046FDF7AFF97D49D1F81600E6
:102FA000FDF7FDF9764A516810684FF48052FDF73D
:102FB00041FAAFF26D107749086000F030F97049BE
:102FC000C8680122314601F062FF0546002D75D127
:102FD0006F4AD1696A4AD06802F058FA6C498A7E11
:102FE000674908684FF40051FFF7DFFE80466849E3
:102FF0008A7E634948684FF40051FFF7D6FE804649
:1030000000F006F9DCE000BF604800780028FBD043
:1030100000205E490870B8F5005F02D00125D2E0BB
:10302000D9E05948007848B159498A7E54494868DE
:103030004FF40051FFF7B9FE804608E054498A7EFC
:103040004F4908684FF40051FFF7AFFE8046B5E0E6
:10305000BFE00020FFF7A8FD0446042C11D148482A
:10306000007C00F0010030B14548007C20F00100F8
:103070004349087405E04248007C40F001004049A3
:103080000874032C01D0012C01D1254697E03C495E
:10309000C8683F49FFF707FF3D4BD3F81220D3F82C
:1030A0000E10D3F80A0000F0FCF8781CC7B2142FF9
:1030B0007AD100273848006808B970E087E070E0EE
:1030C00057415645666163744C4953546461746159
:1030D000776176782D3E617564696F666F726D6198
:1030E000743A25640D0A0000776176782D3E6E6390
:1030F00068616E6E656C733A25640D0A000000000D
:10310000776176782D3E73616D706C657261746560
:103110003A25640D0A000000776176782D3E6269D9
:1031200074726174653A25640D0A000077617678DF
:103130002D3E626C6F636B616C69676E3A25640D3E
:103140000A000000776176782D3E6270733A25643C
:103150000D0A0000776176782D3E646174617369B1
:103160007A653A25640D0A00776176782D3E6461B0
:10317000746173746172743A25640D0A0000000072
:10318000A804002000600240980000209700002062
:103190008804002004000020A482424204E00120B0
:1031A00000E00020184908601848007C00F0010089
:1031B00018B90A20FDF780F800E000E049E700BFF9
:1031C000002D3FF420AF00BF00F029F804E0FF25F8
:1031D00002E0FF2500E0FF250C488168002005F093
:1031E00090F90A480168002005F08BF9074841680A
:1031F000002005F086F90548C168002005F081F936
:103200002846BDE8F0810000A4824242A8040020C4
:1032100010B503203A490874FDF7D9F910BD10B56F
:10322000002037490874FDF7D8F910BDF0B591B00A
:1032300005460026294608A802F06FFA044640F227
:10324000FF1007900020079905F06BF9069004BB6A
:103250000698F0B11BE0694608A802F0ADFA0446F2
:1032600014B99DF8090000B912E00698007808B179
:10327000069801E00DF109000746384600F070FAA3
:10328000044604F0F000402801D1701C86B2E2E749
:1032900000BF0020069905F034F9304611B0F0BDAA
:1032A000704710B5174B1B888B4201D0154C2180FD
:1032B00010BD70B50446204600F052FA0546402D78
:1032C00004D12046FFF714FE054604E021460EA077
:1032D00005F01EFA00BF00BF284670BD10B50021E2
:1032E0000120FFF7D8FA002211461046FFF729FB0C
:1032F00000210120FFF758FB07A0FFF7DAFF10BD00
:10330000A80400209A00002063616E277420706C6E
:1033100061793A25730D0A00303A2F7761762F31A3
:103320002E77617600000000704700BFFEE700BF07
:10333000FEE700BFFEE700BFFEE77047704770473B
:10334000704700000CB5002001900090764800689E
:1033500040F480307449086000BF7348006800F48E
:10336000003000900198401C0190009818B9019815
:10337000B0F5A04FF1D16C48006800F4003010B1F6
:103380000120009001E0002000900098012846D123
:1033900065484030006840F0805063494031086023
:1033A0006248006840F44040604908605E48083068
:1033B00000685D49083108600846006840F4004034
:1033C00008600846006840F4A05008605848091F8B
:1033D0000860081F006840F08070091F086000BF87
:1033E0005148006800F000700028F9D040F20570E4
:1033F000504908604C480830006820F003004A49F2
:10340000083108600846006840F00200086000BF0C
:1034100045480830006800F00C000828F8D10CBDC1
:1034200010B54548006840F47000434908603E48C4
:10343000006840F001003C49086000203A4908312A
:103440000860394800683D490840374908603C48F1
:10345000091D0860081F006820F48020091F08600B
:10346000002031490C310860FFF76CFF4FF000601D
:1034700031498039086010BD70B500200022022358
:1034800000240221284D08352D6805F00C0020B1DC
:10349000042806D0082834D107E02A4D2A4E35608A
:1034A00033E02A4D284E35602FE01F4D2D1D2D682D
:1034B000C5F380541C4D2D1D2D6805F03F0154B1FE
:1034C000224DB5FBF1F5184E361D3668C6F3881649
:1034D00005FB06F209E01B4DB5FBF1F5124E361D5A
:1034E0003668C6F3881605FB06F20F4D2D1D2D68B4
:1034F000C5F301456D1C6B00B2FBF3F5124E356050
:1035000003E0104D104E356000BF00BF064D08357A
:103510002D68C5F303150E4E705D0B4D2D68C5402B
:10352000094E356070BD0000003802400070004058
:1035300008544007003C024088ED00E0FFFFF6FE23
:10354000103000240024F4009C00002000127A00B7
:10355000A00000200648804706480047FEE7FEE737
:10356000FEE7FEE7FEE7FEE7FEE7FEE7FEE7FEE733
:10357000213400088901000870B5044600251CB9F3
:10358000FDF726FF054601E0012500BF00BF0DB194
:10359000012070BD0020FCE70146002070472DE9A6
:1035A000F04105460E4617461C464FF0000814B978
:1035B0000420BDE8F08195B9E2B239463046FEF705
:1035C00069FF804607E0FDF703FFE2B23946304667
:1035D000FEF760FF8046B8F1000FF4D102E04FF033
:1035E000010800BF00BFB8F1000F01D10020E0E7E3
:1035F0000120DEE72DE9F04105460E4617461C4640
:103600004FF0000814B90420BDE8F08195B9E2B28A
:1036100039463046FEF79EFF804607E0FDF7D8FEAC
:10362000E2B239463046FEF795FF8046B8F1000F0A
:10363000F4D102E04FF0010800BF00BFB8F1000F65
:1036400001D10020E0E70120DEE72DE9F047064642
:103650008946154646BBB9F1000F09D0B9F1010FF3
:1036600013D0B9F1020F05D0B9F1030F19D106E05B
:10367000002418E04FF400702860002413E0144880
:10368000B0F85000288000240DE011484FF400727B
:103690000023D0E91271384604F080FF286000242E
:1036A00001E0042400BF00E001242046BDE8F087CB
:1036B0000020704710B504462146002004F031FF79
:1036C00010BD10B504462146002004F01AFF10BDBD
:1036D0006801002010B500240EE04FF40C710020AA
:1036E00004F01FFF5C4941F82400084650F824000C
:1036F00000B903E0601CC4B2032CEEDB00BF4FF442
:103700000A71002004F00DFF544908604FF40A715B
:10371000002004F006FF524908604FF400710020B9
:1037200004F0FFFE4F490860032C0AD14B480068A3
:1037300038B14B48006820B10846006808B1002045
:1037400010BD0120FCE70146412901DA0846704717
:10375000612903DBA1F12000C0B2F8E70846F6E7D3
:103760002DE9FC4105460027002405E0601CC4B299
:10377000287800B902E06D1CFA2CF7DB00BFFA2CA8
:1037800002D1FF20BDE8FC81002408E06D1E2878EE
:103790002E2802D16D1C2F4603E0601CC4B2052CFC
:1037A000F4DB00BF3946684604F045FF002407E01B
:1037B0001DF80400FFF7C7FF0DF80400601CC4B239
:1037C000042CF5DB00241DE0002616E0264800EB63
:1037D000041050F82600007800B910E0224901EBEF
:1037E000041151F82600694604F017FF18B946EA9B
:1037F0000410C0B2C6E7701CC6B2042EE6DB00BFE0
:10380000601CC4B2072CDFDBFF20BBE72DE9FC47BF
:1038100007460C461546002000908046814601AAC6
:103820006946384602F02BF806468EB90198406981
:10383000801E0199897800FB01F901988078009930
:1038400000FB01F84FEA590020604FEA5800286059
:103850003046BDE8FC870000BC040020B00000201A
:10386000B4000020C0000020188C000870B503468A
:103870000C4603E014F8015B03F8015B1500A2F1AC
:103880000102F7D170BD30B5034601E003F8011B1A
:103890001400A2F10102F9D130BDF0B503461C4677
:1038A0000D46002000BF1600A2F1010207D014F857
:1038B000017B15F801CBA7EB0C063000F3D0F0BD6F
:1038C000024600E0521C107810B110788842F9D1FD
:1038D0001078704770B504462079F8B1E56A6078D1
:1038E00001232A4604F13001FFF784FE08B10120CC
:1038F00070BD00202071206A281AA16988420DD26B
:10390000E67809E0A0690544607801232A4604F1BD
:103910003001FFF76FFE761E022EF3D20020E7E79C
:1039200070B504460D46E06AA84210D02046FFF765
:10393000D1FF08B1012070BD607801232A4604F14F
:103940003001FFF72CFE08B10120F4E7E56200200A
:10395000F1E770B504462046FFF7BCFF0546002D91
:1039600059D1207803284FD1607901284CD14202E7
:10397000002104F13000FFF786FF552184F82E1254
:10398000AA2184F82F12522084F8300052213120CD
:103990000155612132200155412133200155722109
:1039A00084F8141284F81512412184F8161261214A
:1039B00084F81712217C84F81812208A010A84F8EE
:1039C00019122069010C84F81A122069010E84F87A
:1039D0001B12217B84F81C12A089010A84F81D1295
:1039E000E068010C84F81E12E068010E84F81F12D2
:1039F000E069401CE0626078012304F13001E26A72
:103A0000FFF7F8FD00206071607800221146FFF793
:103A10001CFE00B10125284670BD0246891E506972
:103A2000801E884201D8002070479378906A01FB7D
:103A30000300F9E72DE9F04105460C46022C02D3BC
:103A40006869A04202D80120BDE8F08128780128E9
:103A500004D002282CD003285AD13DE0274607EB9A
:103A60005707286A00EB57212846FFF759FF00B196
:103A700050E0C7F3080105F1300010F801807F1C09
:103A8000286A00EB57212846FFF74AFF00B141E0C2
:103A9000C7F3080105F13000405C48EA002804F053
:103AA000010010B14FEA1810CEE7C8F30B00CBE7C6
:103AB000286A00EB14212846FFF732FF00B129E005
:103AC00040F2FF1000EA440105F130000E18307892
:103AD000717840EA0120B7E7286A00EBD411284644
:103AE000FFF71EFF00B115E040F2FF1000EA84016D
:103AF00005F130000E18F0780006B17840EA014078
:103B0000717840EA01203178084320F070409BE74B
:103B1000012099E700BF4FF0FF3095E72DE9F0470E
:103B200005460E461746022E02D36869B04202D8F7
:103B30004FF002088AE02878012804D0022841D0FA
:103B400003287DD154E0B14609EB5909286A00EBFE
:103B500059212846FFF7E4FE8046B8F1000F00D057
:103B600071E0C9F3080105F130000C1806F00100FE
:103B700020B1F9B2207861F31F1000E038462070C0
:103B800009F1010901202871286A00EB5921284612
:103B9000FFF7C6FE8046B8F1000F00D053E0C9F32E
:103BA000080105F130000C1806F0010010B1C7F350
:103BB000071005E0207800F0F000C7F30321084368
:103BC000207040E0286A00EB16212846FFF7A8FE87
:103BD0008046B8F1000F00D035E040F2FF1000EA57
:103BE000460105F130000C182770380A60702AE091
:103BF000286A00EBD6112846FFF792FE8046B8F1FE
:103C0000000F00D01FE040F2FF1000EA860105F12E
:103C100030000C18E0780006A17840EA0140617895
:103C200040EA01202178084300F0704007432770E4
:103C3000380A6070380CA070380EE07003E0FFE7BF
:103C40004FF0020800BF00BF012028714046BDE8C8
:103C5000F0872DE9F04104460E46022E02D360693A
:103C6000B04201D8022727E0002721E03146204654
:103C7000FFF7E0FE054605B91DE0012D01D1022741
:103C800019E0681C08B9012715E0002231462046DA
:103C9000FFF744FF074607B10DE02069401C30B133
:103CA0002069401C2061607940F0010060712E465F
:103CB0006069B042DAD800BF3846BDE8F0812DE92E
:103CC000F04704468946B9F1000F06D1E76817B1FD
:103CD0006069B84215D8012713E049462046FFF72E
:103CE000A9FE0646022E02D20120BDE8F087701C14
:103CF00008B93046F9E76069B04201D93046F4E7C7
:103D00004F463D4600BF6D1C6069A84204D802259D
:103D1000BD4201D90020E8E729462046FFF78AFE88
:103D2000064606B909E0701C08B1012E01D13046E3
:103D3000DBE7BD42E7D10020D7E700BF6FF070425C
:103D400029462046FFF7EAFE8046B8F1000F08D169
:103D5000B9F1000F05D02A4649462046FFF7DEFE9E
:103D60008046B8F1000F0BD1E5602069401C78B1A6
:103D70002069401E2061607940F00100607107E019
:103D8000B8F1010F02D14FF0FF3000E001200546ED
:103D90002846AAE770B503460D46586A021D680A10
:103DA0001E68B678B0FBF6F400BF02CA09B900205D
:103DB00070BD8C4200D202E0641A121DF5E700BF0C
:103DC00010682044F4E72DE9F04104460E46E680F1
:103DD000A568012D03D020684069A84202D80220BE
:103DE000BDE8F0812DB920680078032801D1206852
:103DF000456A45B920680089B04201D80220EFE742
:103E00002068476A1EE0206880784FEA001812E0B8
:103E100029462068FFF70EFE0546681C08B90120F8
:103E2000DEE7022D03D320684069A84201D80220B2
:103E3000D6E7A6EB08064645EAD229462068FFF7F2
:103E4000ECFD0746E5600FB90220C9E707EB161045
:103E500020612068303006F00F0100EB41106061F6
:103E60000020BDE72DE9F04104468846E088461C65
:103E7000B0B208B1206910B90420BDE8F08106F0A5
:103E80000F0000286CD12069401C2061E06828B92F
:103E900020680089B04263D80420EEE7206880786B
:103EA000401E00EA161000285AD1E1682068FFF78A
:103EB000C1FD0546012D01D80220DEE7681C08B9C6
:103EC0000120DAE720684069A84243D8B8F1000F22
:103ED00001D10420D1E7E1682068FFF7F0FE054634
:103EE0000DB90720C9E7012D01D10220C5E7681CE3
:103EF00008B90120C1E72068FFF7ECFC08B10120F8
:103F0000BBE7216801F130004FF400720021FFF798
:103F1000BAFC29462068FFF780FD2168C8620027A7
:103F20000EE00120216808712068FFF7D3FC08B17A
:103F30000120A2E72068C06A401C2168C8627F1C7B
:103F400020688078B842ECD82068C06AC01B21681D
:103F5000C86200BFE56029462068FFF75EFD20616A
:103F6000E6802068303006F00F0100EB4110606100
:103F7000002082E72DE9F04104460E46002120464C
:103F8000FFF721FF0546EDB9002700BF2169206832
:103F9000FFF7C6FC054605B113E060690078E52827
:103FA00002D06069007820B9781C0746B04201D180
:103FB00007E0002701212046FFF754FF0546002DAA
:103FC000E4D000BF042D00D107252846BDE8F081CC
:103FD00010B502468C7ECB7E44EA03201378032B77
:103FE00005D10C7D4B7D44EA032340EA034010BD1C
:103FF00081760B0AC3760A0C02750B0E4375704767
:104000002DE9F04705460C46207820F04000401E80
:1040100000EB800101EBC00600274FF0010800BF54
:10402000F848C05D205CF749C95D2144497840EA01
:104030000129B8F1000F10D0484602F06AFD804611
:10404000FF2E07D23146761C35F8110002F061FDD3
:10405000404508D00020BDE8F0874FF6FF7081454D
:1040600001D00020F7E7781C07460D28D8D3207828
:1040700000F0400038B1B8F1000F04D035F8160058
:1040800008B10020E7E70120E5E7F0B5034608782E
:1040900000F03F00401E00EB800707EBC002002548
:1040A000012600BFD748405D085CD64F7F5D0F44B6
:1040B0007F7840EA07244EB1FF2A01D30020F0BDEB
:1040C00026461046521C23F8104005E04FF6FF70BC
:1040D000844201D00020F2E7681C05460D28E1D398
:1040E000087800F0400030B1FF2A01D30020E6E755
:1040F000002023F812000120E1E7F0B504461D4638
:104100004D730F27CF7200270F738F76BC4681F84F
:104110001BC0571E07EB870C0CEBC7060027384661
:104120003B4600BF4FF6FF77B84203D03746761CB8
:1041300034F81700DFF8CCC21CF803C001F80C00FB
:104140000712DFF8C0C21CF803C08C448CF8017061
:1041500008B94FF6FF705F1C3B460D2FE2D34FF6B8
:10416000FF77B84202D034F816700FB942F040021F
:104170000A70F0BD2DE9FC4707468A4690461E4668
:104180000B2251463846FFF771FB052E18D93046F1
:1041900010E038F8021B00250AE00A4660F35F02CF
:1041A0001046491000F480320AB1974A50406D1C05
:1041B000102DF2D3B8F80020002AEAD1064600BF3D
:1041C000072500BF06F00F0000F13009B9F1390FE3
:1041D00003DD09F1070000F0FF0928466D1E0DF808
:1041E00000903609002EEDD17E200DF80500002448
:1041F0000BE0385D812807DB385DFE2804DC681E93
:10420000A04200D106E0641C641CAC4202D2385DBE
:104210002028EED100BF00BF082D04D228466D1C17
:104220001DF8001000E020212046641C3954082CA1
:10423000F2D3BDE8FC8730B5014600200B2200BF59
:10424000431003EBC01411F8015B6319D8B2531E7D
:104250001A00F5D130BD2DE9F04704460021204673
:10426000FFF7B1FD074617B13846BDE8F0874FF0BC
:10427000FF09CA464FF6FF70208400BF21692068FD
:10428000FFF74EFB074607B157E065692E780EB978
:10429000042752E0E87A00F03F08E52E05D008F048
:1042A000080040B1B8F10F0F05D04FF0FF094FF6ED
:1042B000FF7020843AE0B8F10F0F1CD1E06978B3A9
:1042C00006F0400030B195F80DA026F04006B1464A
:1042D000E08820844E450AD1687B504507D12946A5
:1042E000E069FFF78DFE10B1A9F1010000E0FF20A9
:1042F00000F0FF091AE0B9F1000F05D12846FFF7D9
:104300009AFF504500D118E0A069C07A00F0010082
:1043100038B90B222846A169FFF7BFFA08B90CE0AB
:1043200004E04FF0FF094FF6FF7020840021204683
:10433000FFF798FD0746002FA0D000BF384694E74E
:104340002DE9F05F04468A464FF0FF09CB4604276B
:104350004EE021692068FFF7E3FA074607B14AE01B
:10436000666935780DB9042745E0F07A00F03F081A
:10437000E52D09D02E2D07D0B8F1080F01D101206D
:1043800000E00020504502D04FF0FF0929E0B8F1CD
:104390000F0F1AD105F0400030B196F80DB025F09E
:1043A0004005A946E08820844D450AD1707B5845D8
:1043B00007D13146E069FFF768FE10B1A9F10100AD
:1043C00000E0FF2000F0FF090BE0B9F1000F04D17D
:1043D0003046FFF730FF584502D04FF6FF7020847B
:1043E00009E000212046FFF73DFD074607B102E046
:1043F00020690028ADD100BF0FB1002020613846F0
:10440000BDE8F09F888C0008211001002DE9FE4FC7
:104410000446D4F81880D4F81C900C224146684613
:10442000FFF724FA00BF9DF80B0000F0010020B355
:10443000002088F80B00E06101260CE033464A4674
:1044400069464046FFF796FE2046FFF704FF054603
:1044500005B102E0761C642EF0D300BF642E02D1B9
:104460000720BDE8FE8F042D01D02846F9E79DF80E
:104470000B0088F80B00C4F81C909DF80B0000F0AE
:10448000020060B1002600E0761C39F81600002812
:10449000FAD106F119000D21B0FBF1F700E0012778
:1044A00039462046FFF766FD054645BB781E0700E6
:1044B00025D0E088C11B2046FFF785FC0546F5B9ED
:1044C000A069FFF7B8FE824600BF21692068FFF7A8
:1044D00027FA054605B111E0FAB253466169E06971
:1044E000FFF70BFE01202168087100212046FFF72D
:1044F000B9FC054615B9781E0700E6D100BFC5B95D
:1045000021692068FFF70CFA054695B920220021A1
:104510006069FFF7B8F90B22D4E90501FFF7A6F9A6
:10452000A069C07A00F01800616908730120216851
:104530000871284695E770B50446E688208C4FF64A
:10454000FF72904201D1304600E0208C01462046A7
:10455000FFF739FC05460DBB00BF21692068FFF756
:10456000DFF9054605B115E0202200216069FFF75B
:104570008AF9E52061690870012021680871E088E6
:10458000B04200D306E000212046FFF76BFC054651
:10459000002DE2D000BF042D00D10225284670BDB9
:1045A0002DE9F04707460C4604F109063869002852
:1045B00043D07869002526E029466D1C10F801805B
:1045C000B8F1200F00D11EE0B8F1050F01D14FF076
:1045D000E508092D02D12E2106F8011BB8F1410F83
:1045E0000EDBB8F15A0F0BDC017B092D01D3102231
:1045F00000E00822114019B108F1200101F0FF0884
:1046000006F8018B00BF0B2DD6D3C17A2172C17F72
:104610000A06817F42EA0142417F42EA0121027F8C
:1046200011432160027E417E42EA0121A180827D08
:10463000C17D42EA0121E18000BF00203070A06905
:1046400090B30025A669386958B3E06948B3388C3F
:104650004FF6FF71884224D0D7F81CA01BE0002140
:10466000484602F051FA8146B9F1000F01D1002508
:1046700016E0B9F1FF0F04DD4FEA292228466D1C30
:104680003254E069401EA84201D8002508E02846BF
:104690006D1C06F800903AF8021B5FEA0109DED1B2
:1046A00000BF0020705500BFBDE8F0872DE9F34F33
:1046B00083B0814604980068019002E00198401C94
:1046C0000190019800782F28F8D0019800785C2894
:1046D000F4D0D9F81CA000252F4600BF38467F1C17
:1046E00001990C5C202C03DB2F2C01D05C2C00D119
:1046F00032E0FF2D03D3062005B0BDE8F08FE4B211
:10470000812C13DBE0B2FE2810DC38467F1C0199B7
:104710000E5C402E01DB7E2E05DD802E01DBFE2EA1
:1047200001DD0620E8E706EB042084B201212046E3
:1047300002F0EAF904460CB90620DDE7802C06DA1F
:104740002146F9A0FFF7BCF808B10620D4E72846B7
:104750006D1C2AF81040C1E700BF0198C1190498E8
:104760000160202C01DA042000E00020804608E0EF
:10477000681E3AF81040202C02D02E2C00D002E007
:104780006D1E002DF4D100BF0DB90620B4E7002046
:104790002AF815000B222021D9F81800FFF773F82A
:1047A000002700E07F1C3AF817002028FAD03AF8DA
:1047B00017002E28F6D00FB148F0030800E06D1E58
:1047C00025B1681E3AF810002E28F8D100200646C0
:1047D00002904FF0080B00BF38467F1C3AF810409B
:1047E00004B963E0202C03D02E2C04D1AF4202D0B8
:1047F00048F00308F0E70298584501D2AF4214D1BF
:10480000BBF10B0F02D148F003084FE0AF4201D0DB
:1048100048F00308AF4200D948E02F460820029034
:104820004FF00B0BB006060ED6E7802C09DB2046B6
:1048300002F06FF90021009002F066F9044648F09A
:104840000208FF2C11DDABF101000299884204D867
:1048500048F00308CDF808B0BEE72212D9F81830A6
:104860000298411C02911A5419E024B12146B1A0CA
:10487000FFF726F818B15F2448F003080FE0412C39
:1048800004DB5A2C02DC46F0020608E0612C06DB51
:104890007A2C04DC46F00106A4F1200084B2D9F899
:1048A00018300298411C02911C5495E700BFD9F8BA
:1048B00018000078E52803D10520D9F818100870F1
:1048C000BBF1080F01D1B006060E06F00C000C2853
:1048D00003D006F00300032801D148F0020808F0D5
:1048E000020058B906F00300012801D148F0100871
:1048F00006F00C00042801D148F00808D9F8180087
:1049000080F80B800020F7E62DE9F341044601987A
:1049100000782F2803D0019800785C2802D10198F4
:10492000401C01900020A06001980078202807D248
:1049300000212046FFF747FA05460020606128E085
:1049400000BF01A92046FFF7B1FE054605B11FE0F3
:104950002046FFF780FC0546A069C67A3DB1042DCC
:1049600004D100BF06F0040000B9052510E006F0F0
:10497000040000B10CE06769F87A00F0100008B993
:10498000052505E039462068FFF722FBA060D8E73F
:1049900000BF2846BDE8FC8170B502464FF0FF30ED
:1049A0001568E5B1116800E0491C0D78202D02D38F
:1049B0000D783A2DF8D10D783A2D0FD1146814F8EE
:1049C000015BA5F130030A2B07D28C4205D1032BE2
:1049D00003D218464D1C2946156070BD002000BF4B
:1049E000FBE770B504460D4600202071401EE062D2
:1049F00029462046FEF794FF08B1032070BD94F8C5
:104A00002E1294F82F0241EA00204AF655218842DE
:104A100001D00220F2E794F86900010694F86800DA
:104A200041EA004194F8670041EA002094F86610DA
:104A3000084320F07F404149884201D10020DDE752
:104A400094F88500010694F8840041EA004194F846
:104A5000830041EA002094F88210084320F07F4050
:104A60003649884201D10020C8E70120C6E72DE978
:104A7000F74F88B00021089801600998FFF78CFF74
:104A800007900798002803DA0B200BB0BDE8F08FE1
:104A90002B49079851F820400CB90C20F5E70898ED
:104AA0000460207878B16078FEF776FD804608F0E3
:104AB000010040B90A9820B108F0040008B10A20AA
:104AC000E3E70020E1E7002020700798607060783D
:104AD000FEF752FD804608F0010008B10320D4E73C
:104AE0000A9820B108F0040008B10A20CDE7002799
:104AF00039462046FFF775FF0546012D01D09DBBC5
:104B00003BE0002622E004F5F77101EB0610017985
:104B1000C1B1C17A0A06817A42EA0142417A42EA87
:104B20000121027A11430EE0222A3A3C3E3F7C7F6B
:104B3000000000002B2C3B3D5B5D00004641540013
:104B40000C05002000214DF82610761C042EDAD327
:104B5000002606B1761E00BF5DF826702FB13946DB
:104B60002046FFF73EFF01E007E0022005461DB1A9
:104B7000701C06460428EFD300BF032D01D101208D
:104B800083E70DB10D2080E73B20015D94F83C00E8
:104B900041EA0020B0F5007F01D00D2075E74620E6
:104BA000015D94F8470041EA0029B9F1000F0ED1E8
:104BB00094F85700010694F8560041EA004194F831
:104BC000550041EA002094F8541040EA0109C4F865
:104BD00018904020005DE070E078012804D0E07873
:104BE000022801D00D2050E7E07809FB00F93D20B4
:104BF000005DA070A07818B1A078411E084008B1EF
:104C00000D2042E74120015D94F8420041EA002076
:104C10002081207A00F00F0008B10D2035E74320F5
:104C2000015D94F8440041EA002BBBF1000F0ED166
:104C300094F85300010694F8520041EA004194F8B8
:104C4000510041EA002094F8501040EA010B3E2048
:104C5000015D94F83F0041EA00200490049808B9EF
:104C60000D2012E704984844218900EB11100690AA
:104C70000698834501D20D2007E70698ABEB0000AC
:104C8000A178B0FBF1FABAF1000F01D10D20FCE6DA
:104C9000012540F6F670824500D302254FF6F670E6
:104CA000824500D303250AF102006061E7610498A0
:104CB0003844206206983844A062032D16D120891A
:104CC00008B10D20E1E694F85F00010694F85E005B
:104CD00041EA004194F85D0041EA002094F85C103C
:104CE0000843606260698000059014E0208908B97B
:104CF0000D20CAE6206A48446062022D02D1606934
:104D0000400007E0207D00F00100616901EB4101F6
:104D100000EB51000590A169059800F2FF10B1EB7E
:104D2000502F01D20D20B0E64FF0FF302061E0603F
:104D300080206071032D5AD194F8601094F86100BE
:104D400041EA0020012852D1791C2046FEF7E8FDF7
:104D5000E8BB0020607194F82E1294F82F0241EA0B
:104D600000204AF65521884241D13320005D0106DA
:104D70003220005D41EA00413120005D41EA00201F
:104D800094F830100843FC49884230D194F8170257
:104D9000010694F8160241EA004194F8150241EA2E
:104DA000002094F814120843F44988421FD194F863
:104DB0001B02010694F81A0241EA004194F8190214
:104DC00041EA002094F818120843206100E00EE048
:104DD00094F81F02010694F81E0241EA004194F87B
:104DE0001D0241EA002094F81C120843E06025707F
:104DF000E3480088401C80B2E1490880E080002040
:104E000043E670B505462C464CB1206838B12068A1
:104E1000007820B12068C088A188884201D009208C
:104E200070BD21684878FEF7B7FB00F0010008B1BB
:104E30000320F5E70020F3E7F7B582B016460398A4
:104E4000019001A8FFF7A8FD0546002D02DA0B200E
:104E500005B0F0BDCB4850F825400CB100202070C3
:104E6000029810B1002002990870C649029841F8D2
:104E70002500029808B1012E01D00020E8E70022A9
:104E800003A902A8FFF7F3FD07463846E0E72DE93E
:104E9000F7478DB0054616461DB9092010B0BDE88C
:104EA000F0870020286006F01F0626F001020EA9F8
:104EB00004A8FFF7DCFD0746002F73D14FF4007004
:104EC000FEF7F8FB8146B9F1000F01D11120E5E7AB
:104ED000CDF82C9001A80A9004A80E99FFF714FDB4
:104EE0000746099C0FB904B9062706F01C000028E4
:104EF00051D04FB1042F03D104A8FFF787FA07461A
:104F000046F00806099C09E0E07A00F0110008B1BB
:104F1000072703E006F0040000B10827002F39D16D
:104F200006F00800002835D0FEF7C2FB804684F862
:104F30000E804FEA1821E1734FEA184121744FEABD
:104F4000186161740020E072207700216177A177F9
:104F5000E17721460498FFF73BF88246002120467E
:104F6000FFF746F8012004990871BAF1000F11D03B
:104F70000498D0F82C8051460498FEF76AFE074644
:104F800047B9AAF101000499C86041460498FEF7A8
:104F9000C7FC07460FE077B9E07A00F0100010B1C7
:104FA000042708E031E006F0020020B1E07A00F0CA
:104FB000010000B1072747B906F0080008B146F024
:104FC00020060498C06AE8612C624846FEF779FB27
:104FD000DFB9AE710020E87121460498FEF7F8FFB2
:104FE0002861E07F0106A07F41EA0041607F41EA3D
:104FF0000020217F0843E8600020A860A861686263
:10500000049828602868C088A880384646E72DE9BB
:10501000FF4F83B0044615469A46DDF810B00020D5
:10502000CAF800002046FFF7ECFE0290029818B183
:10503000029807B0BDE8F08FE07908B1E079F8E7B1
:10504000A07900F0010008B90720F2E7D4E90210C6
:10505000401A00900098854200D9009DB2E0208956
:10506000C0F30800002876D120688078401EA1682F
:1050700000EA512000F0FF09B9F1000F1FD1A0682C
:1050800010B9206901900CE0606A28B12046A1683F
:10509000FEF780FE019004E061692068FEF7CAFC1B
:1050A00001900198022802D20220E071C1E7019824
:1050B000401C10B90120E071BBE701986061616993
:1050C0002068FEF7AAFC064616B90220E071B0E798
:1050D0004E444FEA5528B8F1000F29D009EB0800DB
:1050E00021688978884203D920688078A0EB090874
:1050F00021684878434632465946FEF750FA10B1C7
:105100000120E07195E7A07900F0400068B1A06946
:10511000801B404509D2A169891B0BEB41204FF44C
:10512000007204F12801FEF7A1FB4FEA48273FE097
:10513000A069B04228D0A07900F0400080B1216879
:105140004878012304F12801A269FEF753FA18B147
:105150000120E0716DE718E0A07920F04000A07117
:10516000216848780123324604F12801FEF717FA36
:1051700050B10120E0715CE75252614172724161AD
:10518000C40000200C050020A6612089C0F308009F
:10519000C0F50077AF4200D92F462089C0F308023E
:1051A00004F1280011183A465846FEF75FFB00BF8D
:1051B000BB44A0683844A060DAF800003844CAF85C
:1051C0000000ED1B002D7FF44AAF002031E72DE9F0
:1051D000FF4F83B0044615469B460498019000207B
:1051E000CBF800002046FFF70CFE0290029818B1A1
:1051F000029807B0BDE8F08FE07908B1E079F8E7F0
:10520000A07900F0020008B90720F2E7A06828445E
:10521000A168884200D20025BEE02089C0F30800C2
:1052200000287DD120688078401EA16800EA5120C6
:1052300000F0FF0ABAF1000F26D1A06838B927693B
:1052400097B900212068FEF73AFD07460CE0606A36
:1052500028B12046A168FEF79DFD074604E061697C
:105260002068FEF72CFD074607B998E0012F02D110
:105270000220E071BDE7781C10B90120E071B8E7A9
:105280006761206900B92761A07900F0400078B11A
:1052900021684878012304F12801A269FEF7AAF9E0
:1052A00010B10120E071A4E7A07920F04000A071C6
:1052B00061692068FEF7B1FB064616B90220E0716D
:1052C00097E756444FEA5529B9F1000F2CD00AEB65
:1052D000090021688978884203D920688078A0EB8A
:1052E0000A09216848784B4632460199FEF782F94F
:1052F00010B10120E0717CE7A069801B48450ED207
:10530000A069801B019A02EB40214FF4007204F166
:105310002800FEF7ABFAA07920F04000A07100E071
:1053200016E04FEA49282AE0A069B0420FD0D4E93C
:10533000020188420BD2216848780123324604F1E9
:105340002801FEF72CF910B10120E07151E7A661A8
:105350002089C0F30800C0F50078A84500D9A84608
:105360002189C1F3080204F128015018424601992D
:10537000FEF77CFAA07940F04000A07100BF0198D0
:1053800040440190A0684044A060DBF80000404425
:10539000CBF80000A5EB0805002D7FF43EAF00BF61
:1053A000D4E90201884201D9A068E060A07940F008
:1053B0002000A07100201CE72DE9F04104462046A2
:1053C000FFF71FFD0746002F4CD1A07900F0200009
:1053D000002847D0A07900F0400078B121684878D3
:1053E000012304F12801A269FEF704F910B101209C
:1053F000BDE8F081A07920F04000A071E16920684B
:10540000FEF78EFA0746002F2CD1256AE87A40F085
:105410002000E872207B2877A089010A6977E0687C
:10542000010CA977E068010EE97728462169FEF7AB
:10543000DFFDFEF73DF90646AE75310AE975310C20
:105440002976310E69760020A8740021E974A079CC
:1054500020F02000A0710120216808712068FEF76B
:1054600078FA07463846C3E770B505462846FFF781
:10547000A3FF044644B92846FFF7C3FC04460CB911
:1054800000202860204670BD2046FCE72DE9FE4F35
:1054900004460D462046FFF7B4FC0290029810B176
:1054A0000298BDE8FE8FE07908B1E079F9E7606A1B
:1054B000002871D0681C00283BD1D4F8248058F80B
:1054C00004AB4FF0020926693EB300BF00964FF0CF
:1054D000000B09F1020900BF01960BF1010B3146E7
:1054E0002068FEF7A7FA0646012E02D80220E071D6
:1054F000D7E7701C10B90120E071D2E70198401C79
:105500008642E9D0D14504D848F804BB009848F851
:10551000040B20684069B042D8D8606AC0F8009097
:10552000D14503D80020C8F8000047E011200290C0
:1055300044E0E068A84200D2E568A560002D3DD0B7
:10554000691E2046FEF726FC606161692068FEF74F
:1055500064FA074617B90220E071A2E72068807854
:10556000401E691E00EA512007442089C0F308004C
:1055700020B3A069B84221D0A07900F0400080B1EA
:1055800021684878012304F12801A269FEF732F866
:1055900018B10120E07184E711E0A07920F040000B
:1055A000A0712168487801233A4604F12801FDF7EB
:1055B000F6FF10B10120E07173E7A761ABE0E0688E
:1055C000A84204D2A07900F0020000B9E568D4F83E
:1055D00008904FF00008C4F80880002D67D02068BC
:1055E00080784702B9F1000F11D0681EB0FBF7F1C7
:1055F000A9F10100B0FBF7F0814208D3A9F1010045
:10560000791E8843A060A0682D1A666912E0266999
:105610007EB900212068FEF752FB0646012E02D11A
:105620000220E0713DE7701C10B90120E07138E7FD
:1056300026616661C6B323E0A07900F0020038B1AC
:1056400031462068FEF73BFB064636B93D4619E079
:1056500031462068FEF7EEF90646701C10B90120AD
:10566000E0711EE7012E03D920684069B04202D8DC
:105670000220E07115E76661A0683844A060ED1B68
:10568000BD42D9D800BFA0682844A060C5F3080077
:1056900050B131462068FEF7C0F98046B8F1000FDE
:1056A00003D10220E071FCE601E008EB55282089D7
:1056B000C0F3080020B3A069404521D0A07900F0D4
:1056C000400078B121684878012304F12801A269DB
:1056D000FDF790FF10B10120E071E2E6A07920F023
:1056E0004000A071216848780123424604F1280156
:1056F000FDF755FF10B10120E071D2E6C4F8188023
:10570000D4E90201884205D9A068E060A07940F0A0
:105710002000A07100BF0298C3E673B584B00446B0
:1057200014B9092006B070BD002205A903A8FFF72F
:105730009EF90546002D2FD1039820604FF400708C
:10574000FDF7B8FF06460EB91120EBE7E661C4F895
:1057500018D020460599FFF7D7F805463046FDF7E3
:10576000B0FFB5B9606958B16069C07A00F0100047
:1057700028B161690398FEF72BFCA06000E00525C5
:105780003DB90398C088A08000212046FEF71BFB8E
:105790000546042D00D105250DB1002020602846C6
:1057A000C0E770B504462046FFF72BFB05460DB950
:1057B00000202060284670BDFEB504460F462046F6
:1057C000FFF71FFB0546002D2DD12FB900212046E4
:1057D000FEF7F9FA054626E04FF40070FDF76AFF80
:1057E00006460EB91120FEBDE661C4F818D00021AE
:1057F0002046FEF7A5FD0546042D02D100202061BC
:1058000000256DB939462046FEF7CAFE0021204624
:10581000FEF728FB0546042D02D10020206100255B
:105820003046FDF74EFF2846DDE773B58CB00E46D7
:1058300000220CA903A8FFF71AF90546EDB94FF4A9
:105840000070FDF737FF044614B911200EB070BD8B
:105850000A94CDF824D003A80C99FFF755F8054613
:1058600045B9089828B12EB1314603A8FEF798FE35
:1058700000E006252046FDF724FF2846E6E72DE94F
:10588000F74F82B08A46002202A90498FFF7EFF88A
:10589000019004980468019800286DD1D4E904109F
:1058A000801E814203D82069CAF8000064E094F8A1
:1058B00000B00026BBF1010F1CD1022700BF394602
:1058C0002046FEF7B7F8804608F1010010B9012024
:1058D00001900EE0B8F1010F02D10220019008E022
:1058E000B8F1000F00D1761C781C07466169884228
:1058F000E5D33AE06769206A00904FF0000900257F
:1059000000BFB9F1000F0ED10098421C014620469D
:105910000092FEF705F80190019800B124E004F12F
:1059200030054FF40079BBF1020F09D1287869786E
:1059300040EA012000B9761CAD1CA9F1020910E073
:10594000E8780006A97840EA0140697840EA012039
:105950002978084320F0704000B9761C2D1DA9F16C
:105960000409781E0700CCD100BF2661607940F0A1
:1059700001006071CAF80060019805B0BDE8F08FC1
:1059800070B504462046FFF73CFA054645B9E07974
:1059900008B1E57904E0A07900F0020000B907251C
:1059A000002D47D1D4E90210884241D9A068E060B7
:1059B000A07940F02000A071A06838B92169206862
:1059C000FEF747F90546002020611DE06169206867
:1059D000FEF730F806460025701C00B90125012E9F
:1059E00000D1022585B920684069B0420CD96FF01A
:1059F000704261692068FEF791F8054625B9314685
:105A00002068FEF726F9054695B9A07900F0400018
:105A100070B121684878012304F12801A269FDF7DB
:105A2000E9FD08B1012503E0A07920F04000A07154
:105A300005B1E571284670BDF1B596B0012216A9F1
:105A40000DA8FFF714F80446002C54D14FF4007051
:105A5000FDF730FE074617B9112017B0F0BD1497B7
:105A600001A813900DA81699FEF74EFF044600BF3B
:105A7000002C3DD1129E0EB9062404E0F07A00F00D
:105A8000010000B1072431460D98FEF7A1FA054642
:105A9000ECB9F07A00F01000C8B1022D01D2022456
:105AA00015E024220DA904A8FDF7E0FE06950221C9
:105AB00004A8FEF788F904464CB9002104A8FEF7B3
:105AC0003FFC044604B90724042C00D100247CB90F
:105AD0000DA8FEF730FD044654B925B129460D98AE
